:100000000C9487010C94680D0C94410D0C94AF0175
:100010000C94AF010C94AF010C94AF010C94AF01A0
:100020000C94AF010C94AF010C94AF010C94AF0190
:100030000C94AF010C94AF010C94AF010C94AF0180
:100040000C94F70C0C94AF010C944F0A0C94290AF1
:100050000C94AF010C94AF010C94AF010C94AF0160
:100060000C94290E0C94AF0100407A10F35A00A0B2
:10007000724E18090010A5D4E80000E87648170071
:1000800000E40B54020000CA9A3B000000E1F505B1
:10009000000080969800000040420F000000A086FB
:1000A00001000000102700000000E803000000002D
:1000B0006400000000000A000000000001000000D1
:1000C00000002C76D888DC674F0823DFC1DFAE59EB
:1000D000E1B1B796E5E3E453C63AE651997696E87E
:1000E000E6C28426EB898C9B62ED407C6FFCEFBC02
:1000F0009C9F40F2BAA56FA5F490055A2AF75C932D
:100100006B6CF9676DC11BFCE0E40D47FEF520E662
:10011000B500D0ED902E0300943577050080841E45
:10012000080000204E0A000000C80C333333330FA0
:10013000986E12831141EF8D2114893BE65516CF3D
:10014000FEE6DB18D1844B381BF77C1D901DA4BB49
:10015000E424203284725E228100C9F124ECA1E5FE
:100160003D2745646D6F6E64204D616C656B004D7D
:1001700069636861656C204A6F68616E73656E00C3
:100180005374617274696E67205570202E2E2E0094
:100190004C6162566965772054656D7020436F6EBF
:1001A00074726F6C00202046696E6973682020208D
:1001B000202020202020202020002020486561745D
:1001C00065722054776F3A2000202048656174657D
:1001D00072204F6E653A2000536574204865617443
:1001E000657273202020202020202020002A002A51
:1001F000002020204D61783A20002020204D696E9B
:100200003A20005A6F6E652054776F3A0020202004
:100210004D61783A20002020204D696E3A20005A26
:100220006F6E65204F6E653A202020202020202010
:10023000202020005365742054656D702052616E3B
:1002400067657320202020200020205365742048FB
:10025000656174657220202020202020200020204D
:100260004D616E75616C20436F6E74726F6C2020EF
:1002700020200020205365742054656D7020526149
:100280006E676520202020004D61696E204D656EEF
:10029000752020202020202020202020004C61627A
:1002A000566965772054656D7020436F6E74726F68
:1002B0006C0000000000240027002A00000000005D
:1002C000250028002B000000000023002600290044
:1002D00004040404040404040202020202020303EC
:1002E00003030303010204081020408001020408F4
:1002F0001020010204081020000000080002010084
:10030000000304070000000000000000501B11243F
:100310001FBECFEFD8E0DEBFCDBF24E0A4E8B2E03F
:1003200001C01D92A932B207E1F712E0A0E0B1E0EE
:10033000E8E0F6E402C005900D92A438B107D9F7C1
:1003400011E0C7E8D1E004C02197FE010E94F72028
:10035000C638D107C9F70E946E160C9402230C947C
:100360000000FC0126813781620F731F8481958113
:100370008617970738F08281938177836683820F8F
:10038000931F089580E090E008950E94B011FC0151
:10039000892B09F448C0848195818330910520F42C
:1003A000019708F440C00BC08530910528F00597EF
:1003B00099F5668177812BC08681978108950680A3
:1003C000F781E02D309779F18081843779F18B3294
:1003D00029F08D3221F4319691E002C0319690E0FF
:1003E00060E070E04AE0819120ED280F2A3068F447
:1003F000469F9001479F300D1124682F880F770B7F
:1004000060537109620F731FEECF992391F0882713
:100410009927861B970B0895668177818085918542
:100420000E94952006C080E090E0089581E090E071
:100430000895CB0108958F929F92AF92BF92FF9241
:100440000F931F93CF93DF930E94B011FC01892B70
:1004500009F412C1848195818330910520F40197BC
:1004600008F40AC114C08530910550F0059709F0D1
:10047000F4C066817781808591850E94461EEBC01D
:1004800066817781808591850E94461EFDC0C68168
:10049000D781209709F4F0C088818B3229F08D3202
:1004A00021F4219611E002C0219610E08881843762
:1004B00009F4D8C08F7D8E3409F4D9C0893409F489
:1004C00082C0F12C20E030E0A901FE01099180ED0D
:1004D000800F8A30E8F42C3C8CEC38078CE048071D
:1004E0005105A4F4AAE0B0E00E94651F202F000F80
:1004F000330B205331094901330FAA08BB08A5016A
:100500009401260F371F481F591FDFCFF394DDCF0B
:100510000E3221F5EF012196FE01099180ED800F49
:100520008A30E0F42C3C8CEC38078CE0480751050D
:100530009CF7AAE0B0E00E94651F202F000F330B4C
:10054000205331094901330FAA08BB08A5019401C2
:10055000260F371F481F591FFA94DECF80818F7DE9
:10056000CF2DFF0CDD0B8534E1F581818D3219F43F
:10057000329671E006C08B3211F0319601C032968E
:1005800070E080E090E00AE06191A0EDA60FAA3053
:1005900010F5089FD001099FB00D1124862F660F1A
:1005A000990BC0978A0F9B1FDE01A80FB91F979761
:1005B0005CF3772341F0112309F45EC060E070E042
:1005C00080E090E861C0112309F45AC060E070E057
:1005D00080E89FEF59C0772331F09195819591097B
:1005E00002C080E090E0C80FD91FCA01B9010E9483
:1005F000481E1C161D06ACF400E0C0FF0CC024E031
:10060000029FF0011124E75DFE4F2081318142817C
:1006100053810E94A71ED595C7950F5F209769F754
:1006200018C0D195C195D10900E0209791F0C0FF85
:100630000CC024E0029FF0011124EF5EFE4F2081E8
:100640003181428153810E94A71ED595C7950F5FC6
:10065000ECCF1123C9F0905817C06681778180854F
:10066000918512C060E070E080E89FE30DC060E01B
:1006700070E080EC9FE708C060E070E0CB0104C050
:1006800060E070E080E89FE7DF91CF911F910F91CC
:10069000FF90BF90AF909F908F9008950E94EB0CB9
:1006A000643F714008F484C08091B302882309F448
:1006B0007AC08091B1029091B2028130910509F423
:1006C0004AC01CF4892B49F008958230910509F441
:1006D0004CC0039709F449C008958091AF029091EE
:1006E000B002892B69F41092B0021092AF021092FE
:1006F000AE0281E090E09093B2028093B10256C0C6
:100700008091AF029091B002019799F41092B002DB
:100710001092AF021092AE02E091B602F091B702D1
:1007200017AEE091B402F091B50217AE83E090E00D
:100730000DC08091AF029091B00282309105C1F559
:100740001092B0021092AF021092AE029093B202D9
:100750008093B1021AC08091AE028F5F8093AE0287
:100760008091AE02853020F11BC08091AE028230B4
:1007700071F41092B2021092B1021092B302109270
:10078000B0021092AF021092AE0281E00FC08091D1
:10079000AE028F5F8093AE028091AE02833040F054
:1007A0001092AE02089581E08093B3028093040119
:1007B00008958F929F92AF92BF92CF92DF92EF9265
:1007C000FF92CF93DF930E94EB0C6B017C01809131
:1007D0008502909186029601281B390B243631053B
:1007E0000CF4E2C082E00E941D0C019731F484E019
:1007F0000E941D0C892B31F412C084E00E941D0C54
:10080000892B69F48091AF029091B0020196909388
:10081000B0028093AF0281E0809384020BC080918C
:10082000AF029091B00201979093B0028093AF0213
:10083000109284028091B302882309F4ADC08091A4
:10084000B1029091B2028130910521F0029709F432
:100850007CC0A2C08091AE02811107C08091840249
:10086000C091B602D091B70215C08091AE0281301E
:1008700039F480918402C091B602D091B70247C08A
:100880008091AE028230C1F580918402C091B402A1
:10089000D091B50220E030E040E05FE3811125C057
:1008A0006D857E858F8598890E94B61F9B01AC015E
:1008B00089889A88AB88BC886D877E878F87988B5C
:1008C000C501B4010E94B61F20E030E040E05FE3C4
:1008D0000E94A71E9B01AC01C501B4010E94B61F76
:1008E0006D8B7E8B8F8B988F57C06D857E858F85A6
:1008F00098890E94B71FDACF8091AE02833009F049
:100900004BC080918402C091B402D091B50220E026
:1009100030E040E05FE3811111C069897A898B89F9
:100920009C890E94B61F4B015C012D853E854F8539
:100930005889698B7A8B8B8B9C8BC2CF69897A891A
:100940008B899C890E94B71FEECF8091AE028111E6
:1009500010C080918402882321F08091AD028B5FCA
:1009600003C08091AD0285508093AD028091AD02AD
:1009700013C08091AE02813079F480918402882383
:1009800021F08091AC028B5F03C08091AC02855056
:100990008093AC028091AC02C0928502D092860214
:1009A000E0928702F0928802DF91CF91FF90EF9062
:1009B000DF90CF90BF90AF909F908F900895FC01F3
:1009C000A081B1818C918D3051F024F48950823016
:1009D000B8F505C0803219F08F3219F008951196DC
:1009E0002CC011968C9111978A3219F08F32D1F068
:1009F00008951196B183A083A081B181CD010196A4
:100A00009183808311968C9111978823C9F08A3243
:100A100099F712968C9112978F3271F713960DC039
:100A20008A3071F2A081B181CD01019691838083DA
:100A300011968C918111F4CF03C0B183A083C0CFF4
:100A400008951F93CF93DF93EC01162F0E94DF04CC
:100A5000E881F9818081181305C03196F983E88314
:100A600081E001C080E0DF91CF911F910895EF9266
:100A7000FF920F931F93CF93DF938C01DC011496A9
:100A8000CD91DC911597EA80FB808E819F81E80EE5
:100A9000F91EC80102960E94DF04D8011296ED915A
:100AA000FC91139780818732A9F1823299F190ED00
:100AB000980F9A3078F091EA980F9C3158F09FEB9C
:100AC000980F9A3138F08B3229F093ED980F9230CD
:100AD00008F061C0F801228133812F5F3F4F3383DB
:100AE00022832E813F81A9014F5F5F4F6C817D8101
:100AF0006417750740F06A817B81FB01E20FF31FE9
:100B00005F834E838083D8011296ED91FC911397F9
:100B10008081CDCF3196D8011396FC93EE93129736
:100B2000D8011296ED91FC9113979081992399F138
:100B30009F012F5F3F4F13963C932E931297981768
:100B400051F19C35A9F49181ADE7B1E02C912223BC
:100B500039F0921303C011969C9102C01296F6CF01
:100B60009923C9F03296D8011396FC93EE9312970D
:100B70002E813F81A9014F5F5F4F6C817D8164179A
:100B8000750770F26A817B81FB01E20FF31F5F83BF
:100B90004E839083C5CF8E819F819C012F5F3F4FF5
:100BA0004C815D814217530750F04A815B81FA0105
:100BB000E80FF91F3F832E831082C70102C080E037
:100BC00090E0DF91CF911F910F91FF90EF900895EA
:100BD0008091990281110BC0109296021092950299
:100BE000109298021092970281E08093990285E911
:100BF00092E00895DC011296ED91FC9113973097E5
:100C000049F06115710541F00190F081E02D6150CE
:100C10007109F5CF0C94E805828193810797D1F78C
:100C200084819581089580918D0281110BC010926D
:100C30008A021092890210928C0210928B0281E03B
:100C400080938D0289E892E00895DB01109749F0C6
:100C5000ED91FC9111970190F081E02DBC01CD0147
:100C6000099480E090E00895AF92BF92CF92DF9216
:100C7000EF92FF920F931F93CF93DF9300D000D09A
:100C800000D0CDB7DEB77C01DC0116968C918823AD
:100C900009F48EC08150F701868300811181B8016B
:100CA00084E090E00E942506009709F484C0DC01EE
:100CB00011961C930E9313961C921E9212978C0100
:100CC0006701B2E0CB0ED11C6BE7C6010E94210583
:100CD000882309F46DC06DE7C6010E9421058111CA
:100CE00061C0C7010E9437055C01892B09F460C00F
:100CF0006AE3C6010E942105882309F459C01A82BB
:100D00001982BE016F5F7F4FC7010E946513882360
:100D100009F44EC0B501C8010E948B11009761F51E
:100D2000F801608171818AE090E00E9425060097B9
:100D300041F0DC0111961C921E9215961C921E9297
:100D40001497D8011296ED91FC911397309751F0BA
:100D5000208131812115310511F0F901F9CF9183FD
:100D6000808303C0F80193838283009709F1DC013B
:100D70001396BC92AE92129726E0FE013196DC01EA
:100D8000149601900D922A95E1F76DE7C6010E9435
:100D90002105811107C06CE2C6010E942105811165
:100DA000A0CF06C0F70186818F5F8683C80106C089
:100DB0000E94E80503C00E94E80581CF26960FB681
:100DC000F894DEBF0FBECDBFDF91CF911F910F9181
:100DD000FF90EF90DF90CF90BF90AF9008952F924B
:100DE0003F924F925F926F927F928F929F92AF92BB
:100DF000BF92CF92DF92EF92FF920F931F93CF9308
:100E0000DF93CDB7DEB7C456D2400FB6F894DEBF3D
:100E10000FBECDBF1C0180E793E00E94B20A1816F6
:100E200019060CF0C1C167E871E0CE01815B9D4FEE
:100E30000E9400150E9451148E010F5F1F4F97FDF5
:100E400010C08B33910569F089831A8241E050E02C
:100E5000B801CE01815B9D4F0E9458120E9451142F
:100E6000EECFCE0109969C838B838FE392E09E8325
:100E70008D8318861F828FE091E09A838983C15BFE
:100E8000DD4F88819981CF54D240009711F487E8D3
:100E900091E0C85BDD4F19830883C854D240C65B1C
:100EA000DD4F99838883CA54D240C45BDD4F1983D8
:100EB0000883CC54D2408AE0C25BDD4F8883CE5495
:100EC000D240CE01885B9D4F0E943406C95ADD4F47
:100ED00099838883C755D24068E871E00E94B011B9
:100EE0008C01009711F1DC011496ED90FC901597A0
:100EF000B1E0EB16F10461F4FC01668177816115C4
:100F0000710531F080E991E00E94F222892B69F0AD
:100F1000F1E0EF1AF10882E0E816F10430F4D801AC
:100F200016960D911C91179702C000E010E081E029
:100F3000F10182877101FBE0EF0EF11C0115110533
:100F400069F0F80101900020E9F73197AF01401BEB
:100F5000510BB801C7010E94C81403C0C7010E9409
:100F6000B61465E971E0C8010E94F222892B09F0EC
:100F7000D4C081E0D1011A968C93BE01615B7D4F94
:100F8000C7010E94E914CB5ADD4F19821882C5555A
:100F9000D240C95ADD4F88819981C755D2400E94FD
:100FA00054130E944313CB5ADD4F68817981C55594
:100FB000D2400E94FA058C016CE971E00E941B028C
:100FC0004B015C0164EA71E0C8010E941B026B01E5
:100FD0007C016CEA71E0C8010E94C501C75ADD4F6F
:100FE00099838883C955D2406BEB71E0C8010E9498
:100FF0001B02C55ADD4F688379838A839B83CB5557
:10100000D2406EEB71E0C8010E941B02C15ADD4F55
:10101000688379838A839B83CF55D24061EC71E0EA
:10102000C8010E941B022B013C0164EC71E0C80165
:101030000E94C501CD59DD4F99838883C356D240A4
:10104000CB5ADD4FE881F981C555D240D101EF2B54
:1010500019F40D911C9104C012960D911C911397D7
:10106000F801C18AD28AE38AF48A85869686A786A1
:10107000B08AA5019401C701B6010E94B61F20E005
:1010800030E040E05FE30E94A71E9B01AC01C70176
:10109000B6010E94B61FF801658B768B878B908F07
:1010A000C75ADD4F88819981C955D240928F818F6F
:1010B00043A254A265A276A2C55ADD4F88819981C8
:1010C000AA81BB81CB55D240838F948FA58FB68FD9
:1010D000C15ADD4F88819981AA81BB81CF55D24009
:1010E000878F90A3A1A3B2A3CD59DD4F88819981A9
:1010F000C356D24090A787A3CB5ADD4FA881B981B0
:10110000C555D2401196CB5ADD4FB983A883C5553A
:10111000D240129709F03DCF3FC062ED71E0C801A7
:101120000E94F222892B31F500E010E0C95ADD4F10
:1011300088819981C755D2400E9454130E9443135D
:10114000B8010E94FA0569ED71E00E94C501D10164
:101150000115110519F4ED91FC9104C01296ED9161
:10116000FC91139717AE84830F5F1F4F0230110558
:1011700099F0DCCF62EE71E0C8010E94F222892B67
:1011800059F4D101ED91FC91119781E087AF12964E
:10119000ED91FC91139787AFC15BDD4F88819981F9
:1011A000CF54D2400E9495210E94EB0C6B017C0130
:1011B000F101848195819601281B390B80859185E9
:1011C000281739070CF4D4C067EE71E0CE01019600
:1011D0000E940015D101ED91FC91418552856385F6
:1011E0007485CE0101960E94851463E172E0CE0100
:1011F00001960E948612D101ED91FC9140815181AE
:1012000062817381CE0101960E9412136EE172E039
:10121000CE0101960E948612D101ED91FC9164816C
:10122000CE0101960E94E71269E272E0CE010196BA
:101230000E948612D101ED91FC9141A552A563A5B2
:1012400074A5CE0101960E94851463E372E0CE017D
:1012500001960E948612D101ED91FC9141A952A9FB
:1012600063A974A9CE0101960E9485146EE372E011
:10127000CE0101960E948612D1011296ED91FC9149
:1012800013974185528563857485CE0101960E942E
:10129000851463E172E0CE0101960E948612D101AD
:1012A0001296ED91FC911397408151816281738177
:1012B000CE0101960E9412136EE172E0CE010196FA
:1012C0000E948612D1011296ED91FC9113976481D0
:1012D000CE0101960E94E71269E272E0CE0101960A
:1012E0000E948612D1011296ED91FC91139741A5AF
:1012F00052A563A574A5CE0101960E94851463E3EF
:1013000072E0CE0101960E948612D1011296ED91F3
:10131000FC91139741A952A963A974A9CE01019622
:101320000E94851469E472E0CE0101960E94861243
:101330006BE472E0CE0101960E948612BE016F5FDF
:101340007F4F80E793E00E94151560E572E080E72B
:1013500093E00E94231580E793E00E94FB0BF101CC
:10136000C482D582E682F78289819A810E94952182
:10137000CC59DD4F0FB6F894DEBF0FBECDBFDF9165
:10138000CF911F910F91FF90EF90DF90CF90BF9082
:10139000AF909F908F907F906F905F904F903F9015
:1013A0002F90089580E793E00E94B20A21E0892BF4
:1013B00009F420E0822F0895EF92FF920F931F937C
:1013C000CF93DF93EC0181E0888F9B8D8C8D9813F8
:1013D00005C0E889F989808185FD26C0F62E0B8D30
:1013E00010E00F5F1F4F0F731127E02E8C8DE81256
:1013F0000CC00FB607FCFACFE889F989808185FF18
:10140000F5CFCE010E94D90BF1CF8B8DFE01E80FF5
:10141000F11DE35AFF4FF0829FB7F8940B8FEA89D2
:10142000FB89808180620AC09FB7F894EE89FF89AA
:101430006083E889F98980818370806480839FBF9D
:1014400081E090E0DF91CF911F910F91FF90EF909D
:1014500008951F920F920FB60F9211242F933F936E
:101460004F935F936F937F938F939F93AF93BF93AC
:10147000EF93FF9380E793E00E94D90BFF91EF91E8
:10148000BF91AF919F918F917F916F915F914F919C
:101490003F912F910F900FBE0F901F9018951F92A4
:1014A0000F920FB60F9211242F938F939F93EF9368
:1014B000FF93E0918003F09181038081E0918603A6
:1014C000F091870382FD12C09081809189038F5F24
:1014D0008F7320918A03821751F0E0918903F0E025
:1014E000E059FC4F958F8093890301C08081FF9163
:1014F000EF919F918F912F910F900FBE0F901F90A2
:101500001895FC01538D448D252F30E0842F90E0F9
:10151000821B930B541710F0CF96089501970895EE
:10152000FC01918D828D981761F0828DDF01A80FEB
:10153000B11D5D968C91928D9F5F9F73928F90E00D
:1015400008958FEF9FEF0895FC01918D828D98177C
:1015500031F0828DE80FF11D858D90E008958FEFB9
:101560009FEF0895FC01918D228D892F90E0805C82
:101570009F4F821B91098F739927089580E090E017
:10158000892B29F00E94D20981110C940000089542
:10159000833081F028F4813099F08230A1F00895F1
:1015A0008730A9F08830B9F08430D1F48091800080
:1015B0008F7D03C0809180008F7780938000089595
:1015C00084B58F7702C084B58F7D84BD08958091E6
:1015D000B0008F7703C08091B0008F7D8093B00002
:1015E00008953FB7F89480916C0390916D03A0919A
:1015F0006E03B0916F0326B5A89B05C02F3F19F06D
:101600000196A11DB11D3FBFBA2FA92F982F882782
:10161000820F911DA11DB11DBC01CD0142E0660FDD
:10162000771F881F991F4A95D1F70895089585ED72
:101630008093BC008091BC0084FDFCCF1092A70277
:1016400008954091FE02262F30E0240F311D2132F3
:101650003105DCF42091A7022430C9F4FC0180E0BC
:1016600090E0861758F43091FE022191DC01A252DD
:10167000BD4FA30FB11D2C930196F3CF8091FE02B5
:10168000680F6093FE0280E0089581E0089582E093
:101690000895089508950895E091AB028091AA02FB
:1016A000E81730F4F0E0E254FD4F808190E00895B7
:1016B0008FEF9FEF08959091AB028091AA02981747
:1016C00050F4E92FF0E0E254FD4F208130E09F5FBD
:1016D0009093AB0202C02FEF3FEFC90108958091B4
:1016E000AA0290E02091AB02821B91090895CF924B
:1016F000DF92EF92FF920F931F93CF93DF937C01C2
:10170000CB018A0120914503222389F0EB016B0173
:10171000C40ED51ECC15DD0569F06991D701ED9198
:10172000FC910190F081E02DC7010995F3CF642F62
:101730000E94210BC801DF91CF911F910F91FF9063
:10174000EF90DF90CF900895CF93DF931F92CDB7A6
:10175000DEB76983209145032223D1F02091A802AE
:10176000203240F021E030E0FC013383228380E02E
:1017700090E015C08091A902E82FF0E0EA5BFC4FF1
:10178000998190838F5F8093A9028093A80205C0FE
:1017900061E0CE0101960E94210B81E090E00F9064
:1017A000DF91CF910895089580E090E008950E9420
:1017B000E422FC01848DDF01A80FB11DA35ABF4FA5
:1017C0002C91848D90E001968F739927848FA68940
:1017D000B7892C93A089B1898C91837080648C9394
:1017E000938D848D981306C00288F389E02D808143
:1017F0008F7D80830895CF93DF93EC01888D8823BC
:10180000C9F0EA89FB89808185FD05C0A889B9896D
:101810008C9186FD0FC00FB607FCF5CF808185FF48
:10182000F2CFA889B9898C9185FFEDCFCE010E94B6
:10183000D90BE7CFDF91CF910895CF93DF93282F76
:1018400030E0F901E850FD4F8491F901EC51FD4F72
:10185000D491F901E053FD4FC491CC2391F0811153
:101860000E94C80AEC2FF0E0EE0FFF1FEA53FD4F75
:10187000A591B491EC91ED2381E090E021F480E01A
:1018800002C080E090E0DF91CF9108951F93CF9345
:10189000DF93282F30E0F901E850FD4F8491F901E2
:1018A000EC51FD4FD491F901E053FD4FC491CC238D
:1018B000C1F0162F81110E94C80AEC2FF0E0EE0F44
:1018C000FF1FE454FD4FA591B4919FB7F8941111F7
:1018D00004C08C91D095D82302C0EC91DE2BDC9310
:1018E0009FBFDF91CF911F910895CF93DF9390E039
:1018F000FC01EC51FD4F2491FC01E053FD4F84911C
:10190000882361F190E0880F991FFC01EE54FD4F90
:10191000C591D491FC01E454FD4FA591B49161119E
:1019200009C09FB7F8948881209582238883EC9121
:101930002E230BC0623061F49FB7F8948881322F58
:10194000309583238883EC912E2B2C939FBF06C068
:101950008FB7F894E8812E2B28838FBFDF91CF912A
:1019600008958F929F92AF92BF92CF92DF92EF92A3
:10197000FF926B017C010E94F10A4B015C01C114D2
:10198000D104E104F104F1F00E94F10ADC01CB0181
:1019900088199909AA09BB09883E9340A105B10598
:1019A00070F321E0C21AD108E108F10888EE880E30
:1019B00083E0981EA11CB11CC114D104E104F10400
:1019C00019F7DDCFFF90EF90DF90CF90BF90AF90F1
:1019D0009F908F9008952FB7F8946091680370914D
:1019E000690380916A0390916B032FBF08951F9242
:1019F0000F920FB60F9211242F933F938F939F93C3
:101A0000AF93BF938091680390916903A0916A039B
:101A1000B0916B033091670323E0230F2D3720F43F
:101A20000196A11DB11D05C026E8230F0296A11D38
:101A3000B11D209367038093680390936903A0937B
:101A40006A03B0936B0380916C0390916D03A09136
:101A50006E03B0916F030196A11DB11D80936C03BD
:101A600090936D03A0936E03B0936F03BF91AF91FA
:101A70009F918F913F912F910F900FBE0F901F90CC
:101A800018951F920F920FB60F9211242F933F9328
:101A90004F935F936F937F938F939F93AF93BF9376
:101AA000EF93FF93E0910201F09103010995FF91FB
:101AB000EF91BF91AF919F918F917F916F915F91C6
:101AC0004F913F912F910F900FBE0F901F9018953F
:101AD0001F920F920FB60F9211242F933F934F93A3
:101AE0005F936F937F938F939F93AF93BF93EF9386
:101AF000FF93E0910001F09101010995FF91EF91B1
:101B0000BF91AF919F918F917F916F915F914F9115
:101B10003F912F910F900FBE0F901F901895CF936C
:101B2000FC01C48121E020934503C0936603109219
:101B3000A9021092A8028385682B8DE094E00E9490
:101B4000A40B9091A802913208F045C08091A702A1
:101B50008111FCCF82E08093A70281E08093A602EE
:101B60008FEF809344031092430390934203A6E4C3
:101B7000B3E0E2E2F3E080E0981721F02D912193A9
:101B80008F5FFACF1092210380912103CC0FC82BD5
:101B9000C09321038091A502813061F41092A502C7
:101BA000809121038093BB008091BC0083FDF8CF1E
:101BB00085EC01C085EE8093BC008091A702823045
:101BC000E1F3809144038F3F31F0809144038032F0
:101BD00011F0809144031092A9021092A802109271
:101BE0004503CF9108950F931F93CF938C01C62F78
:101BF0000E948F0D6C2F6460C8010E948F0D6C2FA6
:101C00006B7FC8010E948F0D83EC90E00197F1F784
:101C1000CF911F910F9108950F931F93CF93DF934F
:101C20008C01C62FD42F607F642B0E94F30D80E1BE
:101C3000C89FB00111246D2BC801DF91CF911F9176
:101C40000F910C94F30D41E00E940C0E81E090E0A6
:101C500008951F920F920FB60F9211242F933F9366
:101C60004F935F936F937F938F939F93AF93BF93A4
:101C7000EF93FF938091B900887F803609F49CC070
:101C800068F5883209F45BC090F4803109F454C0DF
:101C900038F4882309F4F6C0883009F44DC0F6C042
:101CA000883109F44CC0803209F45DC0EFC0803443
:101CB00009F468C048F4803309F455C0883309F04A
:101CC000E5C080934403D8C0803509F44FC08835FF
:101CD00009F45DC0883409F0D9C0D6C0883909F448
:101CE000C7C0A8F4883709F467C038F4883609F407
:101CF00063C0803709F460C0C9C0883809F4B8C02F
:101D0000803909F45FC0803809F0C0C05BC0803BF7
:101D100009F486C038F4803A09F466C0883A09F4B8
:101D20007FC0B4C0803C09F4A7C0883C09F4A4C0BB
:101D3000883B09F48AC0AAC08091210310C0909109
:101D4000430380914203981770F5E091430381E0CB
:101D50008E0F80934303F0E0EE5DFC4F8081809313
:101D6000BB0085EC86C0809344038EC0E0914303A2
:101D700081E08E0F809343038091BB00F0E0EE5D25
:101D8000FC4F808390914303809142036EC0E091A9
:101D9000430381E08E0F809343038091BB00F0E00A
:101DA000EE5DFC4F80838091A60281116DC081E0C1
:101DB0008093A50284EA61C083E08093A702109219
:101DC0002003CFCF80912003803208F051C0E091F2
:101DD000200381E08E0F809320038091BB00F0E010
:101DE000E050FD4F8083BDCF85EC8093BC00109206
:101DF000A70280912003803230F4E0912003F0E0CC
:101E0000E050FD4F10826091200370E0E091A1024C
:101E1000F091A20280E093E009951092200336C071
:101E200084E08093A7021092FF021092FE02E091DC
:101E3000A302F091A40209958091FE02811105C0D0
:101E400081E08093FE021092DE02E091FF0281E0C9
:101E50008E0F8093FF02F0E0E252FD4F808180936D
:101E6000BB009091FF028091FE02981708F479CF91
:101E700085E88093BC000AC085EC8093BC0010927A
:101E8000A70204C0109244030E94170BFF91EF9128
:101E9000BF91AF919F918F917F916F915F914F9182
:101EA0003F912F910F900FBE0F901F9018954F925A
:101EB0005F926F927F928F929F92AF92BF92CF92DA
:101EC000DF92EF92FF92CF93DF9300D000D000D04B
:101ED000CDB7DEB79E838D830E94EB0CED81FE8132
:101EE00025A936A9621B730B818D928D681779071E
:101EF000ECF181859285A385B48585839683A7833C
:101F0000B08786AD8E3008F08E50877080648093E5
:101F10007C0080917A00806480937A0080917A00BE
:101F200086FDFCCF609178008091790070E0782B7D
:101F3000072E000C880B990B0E94481E20E030E011
:101F400040E85AE30E94A71E20E030E44CE955E443
:101F50000E94A71E20E030E040E251E40E942320CE
:101F6000ED81FE816187728783879487ED81FE8191
:101F700087AD882309F4CAC081849284A384B48481
:101F80000E94EB0C2B013C01ED81FE8181AD92ADF5
:101F90009201281B390B87A190A5281739070CF44B
:101FA00089C0C5A4D6A4E7A4F0A820E030E040ECA6
:101FB0005FEBC701B6010E94411E87FF05C080E0AC
:101FC00090E0A0ECBFEB0EC020E030E040EC5FE31F
:101FD000C701B6010E94CB20181654F480E090E0AF
:101FE000A0ECBFE3ED81FE8185A796A7A7A7B0ABC4
:101FF000A5019401ED81FE81658976898789908D9F
:102000000E94B61F6B017C01ED81FE8125A536A5DE
:1020100047A550A90E94B71F4B015C01ED81FE81CD
:1020200065A776A787A790AB278D30A141A152A1C4
:10203000C701B6010E94A71E69837A838B839C83A4
:10204000ED81FE81238D348D458D568DC501B40102
:102050000E94A71E9B01AC0169817A818B819C81C2
:102060000E94B71F4B015C01ED81FE8121A532A5C5
:1020700043A554A5C701B6010E94B61FED81FE819C
:1020800023A134A145A156A10E94A71E9B01AC012A
:10209000C501B4010E94B71FED81FE8161AB72AB37
:1020A00083AB94ABC1A6D2A6E3A6F4A641AE52AED2
:1020B00063AE74AEED81FE81C1A8D2A8E3A8F4A8F6
:1020C00020E030E0A901C701B6010E94411E1816A8
:1020D000B4F0C701B601905820E030E04FE753E478
:1020E0000E94A71E0E9495206F3F710531F02CF0D1
:1020F0008FEFED81FE81848309C077FF04C0ED81FD
:10210000FE81148203C0ED81FE816483ED81FE8136
:10211000D480ED2CF12CF5ADF98361E08F2F0E9476
:10212000750CE114F10409F44AC08FEFE816F104CC
:1021300009F447C08981E82FF0E0E850FD4FE491B1
:10214000E330F9F048F4E130B9F0E230A1F584B5BC
:10215000806284BDD8BC4DC0E730E9F0E83019F1A9
:10216000E43049F580918000806280938000F09295
:102170008B00E0928A003DC084B5806884BDD7BCE6
:1021800038C080918000806880938000F092890040
:10219000E09288002EC08091B00080688093B000EB
:1021A000D092B30026C08091B00080628093B000CE
:1021B000D092B4001EC0E0E8EE16F10414F460E022
:1021C00001C061E0898126960FB6F894DEBF0FBE8C
:1021D000CDBFDF91CF91FF90EF90DF90CF90BF9078
:1021E000AF909F908F907F906F905F904F900C94E6
:1021F000460C26960FB6F894DEBF0FBECDBFDF911A
:10220000CF91FF90EF90DF90CF90BF90AF909F90D5
:102210008F907F906F905F904F9008950F931F93D2
:10222000CF93DF93EC011C82188219821A821B82E1
:102230008DEC9CECACECBDE38B8F9C8FAD8FBE8F97
:102240004DEC5CEC6CE47EE34F8F58A369A37AA35A
:102250008BA39CA3ADA3BEA384E690E098A78FA315
:1022600040E05CE36CE176EC49A75AA76BA77CA73A
:102270001DA61EA61FA618AA19AA1AAA1BAA1CAA3E
:1022800019861A861B861C861D821E821F8218864E
:1022900040E050E060E771E44D875E876F87788BA0
:1022A00040E050E060EF71E4498B5A8B6B8B7C8B84
:1022B00040E050E064EB71E44D8B5E8B6F8B788F68
:1022C0009A8F898F0E94EB0C0FA118A5012E000C8C
:1022D000220B330BDC01CB01801B910BA20BB30B48
:1022E00089AF9AAFABAFBCAF0E94EB0C098D1A8DD2
:1022F000012E000C220B330BDC01CB01801B910B58
:10230000A20BB30B8DAB9EABAFABB8AFDF91CF9150
:102310001F910F9108950F931F93CF93DF938B011C
:10232000FC01C281D3812097A9F06A817B810115CC
:10233000110519F06115710521F46017710731F469
:1023400009C0C8010E94F222892B21F00990D8818E
:10235000C02DE9CFCE01DF91CF911F910F9108954C
:102360000E948B110895CF92DF92EF92FF920F930C
:102370001F93CF93DF936C017A018B01C0E0D0E013
:10238000CE15DF0581F0D8016D918D01D601ED915B
:10239000FC910190F081E02DC6010995892B11F087
:1023A0002196EECF7E01C701DF91CF911F910F9152
:1023B000FF90EF90DF90CF9008950F931F93CF93EE
:1023C000DF93EC0188819981009729F02A813B8174
:1023D0002617370788F48B016F5F7F4F0E941E22FC
:1023E000009761F0998388831B830A832C813D8148
:1023F000232B11F4FC01108281E001C080E0DF9109
:10240000CF911F910F91089540E061E089E194E040
:102410000E940C0E8BE39FE10197F1F70895CF9393
:10242000DF93CDB7DEB728970FB6F894DEBF0FBEA7
:10243000CDBF98E0E1E4F1E0DE01119601900D924C
:102440009A95E1F790912104961710F46FEF690FB8
:10245000FE013196E60FF11DE60FF11D6081680F58
:10246000606840E089E194E028960FB6F894DEBFFA
:102470000FBECDBFDF91CF910C940C0E0F931F9325
:10248000CF93DF938C01C0E0D0E0F801EC0FFD1F8B
:102490006491662339F041E089E194E00E940C0EDA
:1024A0002196F3CFCE01DF91CF911F910F91089527
:1024B000EF92FF920F931F93CF93DF9361157105F6
:1024C00011F480E01CC041155105C1F07B01EC0105
:1024D0008C819D818A01080F191FB801CE010E94CD
:1024E000DD11882371F3288139818C819D81B701A9
:1024F000820F931F0E94FB221D830C8381E0DF91DA
:10250000CF911F910F91FF90EF9008956115710584
:1025100051F0FB0101900020E9F73197AF01461B14
:10252000570B0C94581280E00895CF92DF92EF92EF
:10253000FF920F931F93CF93DF93EC01C988DA8842
:10254000EB88FC882D853E854F855889C701B601EB
:102550000E94B61F20E030E040E05FE30E94A71E2B
:102560009B01AC01C701B6010E94B61F6D8B7E8B2B
:102570008F8B988F0E94EB0C0FA118A5012E000CD9
:10258000220B330BDC01CB01801B910BA20BB30B95
:1025900089AF9AAFABAFBCAF0E94EB0C098D1A8D1F
:1025A000012E000C220B330BDC01CB01801B910BA5
:1025B000A20BB30B8DAB9EABAFABB8AFDF91CF919E
:1025C0001F910F91FF90EF90DF90CF900895EF92C1
:1025D000FF920F931F93CF93DF9300D000D0CDB71E
:1025E000DEB77C01862F4AE08E010F5F1F4FB801D6
:1025F00090E00E94B81BF80101900020E9F73197A4
:10260000AF01401B510BB801C7010E9458120F9037
:102610000F900F900F90DF91CF911F910F91FF902E
:10262000EF900895EF92FF920F931F93CF93DF9354
:10263000CDB7DEB72D970FB6F894DEBF0FBECDBF76
:102640007C01CB01BA012AE08E010F5F1F4FA80168
:102650000E94C31BF80101900020E9F73197AF01F8
:10266000401B510BB801C7010E9458122D960FB69E
:10267000F894DEBF0FBECDBFDF91CF911F910F91B8
:10268000FF90EF9008956CE672E00E94B011009701
:1026900049F0FC01248135812630310519F4868109
:1026A000978108950C94130662E772E00E94B011BE
:1026B000009749F0FC01248135812730310519F458
:1026C0008681978108950C94E805AF92BF92CF92CE
:1026D000DF92EF92FF920F931F93CF93DF9300D07F
:1026E00000D000D0CDB7DEB77C016B015C0182E089
:1026F000A80EB11CC5010E94DF04D7011296ED910E
:10270000FC91139780818B3521F08B3709F488C0B9
:1027100092C0F7018681882309F46DC081508683B9
:1027200000811181B80184E090E00E9425060097A5
:1027300009F4A2C0FC0111830083138212828C0170
:102740006BE5C5010E942105882309F454C06DE59D
:10275000C5010E942105811146C01A821982BE015D
:102760006F5F7F4FC7010E946513882309F443C040
:10277000D8016D917C9188E090E00E942506DC01F3
:10278000892B39F011961C921E9213961C921E9260
:102790001297F801228133812115310551F0F90199
:1027A00080819181009711F09C01F9CFB183A083C2
:1027B00003C0F801B383A2831097E9F086E0FE011D
:1027C0003196129601900D928A95E1F76DE5C5015B
:1027D0000E942105811107C06CE2C5010E942105FC
:1027E0008111BBCF08C0D70116968C9116978F5FC9
:1027F00016968C9303C00E9413068C01F801808109
:102800009181892B11F410E03AC086E090E0D60166
:1028100011969C938E9313961C930E9312972AC035
:10282000C7010E943406FC0120813181232B59F31A
:1028300027E030E017C011E0873219F0823209F04A
:1028400010E0C7010E9437050097E9F2112341F01B
:1028500022E030E0F60131832083938382830FC02E
:1028600021E030E0D60111963C932E9313969C9371
:102870008E93129711E003C00E94130660CF812F40
:1028800026960FB6F894DEBF0FBECDBFDF91CF9175
:102890001F910F91FF90EF90DF90CF90BF90AF907E
:1028A00008950F931F930E94EB0C6093780370932D
:1028B000790380937A0390937B0380E793E00E94EF
:1028C000900A97FF1FC00E94EB0C009178031091B3
:1028D000790320917A0330917B03DC01CB01801BCB
:1028E000910BA20BB30B009174031091750320910F
:1028F00076033091770380179107A207B307E8F2B8
:102900008FEF9FEF1F910F910895EF92FF920F931A
:102910001F93CF93DF93CDB7DEB764970FB6F894CC
:10292000DEBF0FBECDBF7C01CB01BA018E010F5FB0
:102930001F4F22E044E00E94981BFC010190002000
:10294000E9F73197AF01481B590BBC01C7010E9441
:10295000581264960FB6F894DEBF0FBECDBFDF915C
:10296000CF911F910F91FF90EF900895CF93DF9338
:10297000EC0188819981009711F00E9495211982BC
:1029800018821D821C821B821A82DF91CF910895CA
:10299000EF92FF920F931F93CF93DF93EC017B0194
:1029A0008A01BA010E94DD11811104C0CE010E948A
:1029B000B61407C01D830C83B701888199810E94DA
:1029C000FB22CE01DF91CF911F910F91FF90EF90ED
:1029D0000895CF93DF93EC01FB018617970761F011
:1029E000608171816115710529F0448155810E94D2
:1029F000C81402C00E94B614CE01DF91CF91089591
:102A0000FC011182108213821282158214826115D8
:102A1000710551F0FB0101900020E9F73197AF01FA
:102A2000461B570B0C94C8140895DB0114964D9166
:102A30005C9115976D917C91DC01ED91FC91028088
:102A4000F381E02D09946115710579F0FB01019086
:102A50000020E9F73197AF01461B570BDC01ED91E0
:102A6000FC910280F381E02D099480E090E00895CC
:102A7000BC0189E194E00C9423152F923F924F9270
:102A80005F926F927F928F929F92AF92BF92CF92FE
:102A9000DF92EF92FF920F931F93CF93DF93CDB707
:102AA000DEB7A2970FB6F894DEBF0FBECDBF8C0184
:102AB0004A015B01D22E9A01AB01C501B4010E940B
:102AC000D020882319F067E772E027C02401350180
:102AD000E89477F82FEF3FEF4FE75FE7C301B201CC
:102AE0000E94D02081110DC02FEF3FEF4FE75FE72D
:102AF000C301B2010E94411E18161CF46BE772E07C
:102B00000CC02FEF3FEF4FE75FE4C501B4010E9417
:102B1000CB20181634F46FE772E0C8010E94231529
:102B2000BDC02FEF3FEF4FE75FECC501B4010E943E
:102B3000411E87FDF0CF20E030E0A901C501B401BE
:102B40000E94411E87FF0FC0D801ED91FC910190BA
:102B5000F081E02D6DE2C80109951C01B7FAB0942F
:102B6000B7F8B09402C0212C312CF12C60E070E059
:102B700080E09FE3DF1441F020E030E040E251E4E8
:102B80000E942320F394F6CFA50194010E94B71F61
:102B90004B015C010E949C20562E672E782EC92E78
:102BA00019A2262F372F482F592F7E01B1E2EB0EA5
:102BB000F11CEAA24F2CCA01B9012AE030E040E042
:102BC00050E00E94D520605DF70162937F012115DE
:102BD00031054105510579F7BF01C8010E94231550
:102BE0007101E80EF91EDD2009F457C0652D762D20
:102BF000872D9C2D0E94461E9B01AC01C501B4018E
:102C00000E94B61F4B015C01D801ED91FC9101902F
:102C1000F081E02D6EE2C8010995E80EF91E20E072
:102C200030E040E251E4C501B4010E94A71E4B010F
:102C30005C010E949C209B0140E050E019A22AA068
:102C4000342C562E632E742EC52ECA01B9012AE0EB
:102C500030E040E050E00E94D520605DF1016293D9
:102C60001F01211531054105510579F7BF01C80143
:102C70000E942315E80EF91E652D762D872D9C2DBB
:102C80000E94461E9B01AC01C501B4010E94B61F03
:102C90004B015C01DA94D110C2CFC701A2960FB6E6
:102CA000F894DEBF0FBECDBFDF91CF911F910F9182
:102CB000FF90EF90DF90CF90BF90AF909F908F905C
:102CC0007F906F905F904F903F902F900895AB0151
:102CD000BC0122E089E194E00C943D15CF93DF9391
:102CE00000D000D000D0CDB7DEB7789484B5826034
:102CF00084BD84B5816084BD85B5826085BD85B5A0
:102D0000816085BD80916E00816080936E0010921D
:102D10008100809181008260809381008091810098
:102D20008160809381008091800081608093800029
:102D30008091B10084608093B1008091B000816087
:102D40008093B00080917A00846080937A008091B3
:102D50007A00826080937A0080917A00816080930B
:102D60007A0080917A00806880937A001092C10086
:102D70001092AB021092AA021092A9021092A8021D
:102D80001092A70281E08093A6021092A50261E052
:102D900082E10E94460C61E083E10E94460C809132
:102DA000B9008E7F8093B9008091B9008D7F8093A8
:102DB000B90088E48093B80085E48093BC0089E47E
:102DC0009BE09093A4028093A3028AE49BE09093FB
:102DD000A2028093A10210921E04809123048230EB
:102DE00018F098E090931E048093210462E370E051
:102DF00080E090E00E94B10C6091240489E194E0AD
:102E00000E948F0D68EE73E080E090E00E94B10CAC
:102E100060E389E194E00E94F30D0BE416E4C8013D
:102E20000197F1F760E389E194E00E94F30DC80196
:102E30000197F1F760E389E194E00E94F30D83E5E7
:102E400092E00197F1F760E289E194E00E94F30DCE
:102E500060911E04606240E089E194E00E940C0EE3
:102E600084E080931F0440E06CE089E194E00E94DC
:102E70000C0E0E94041282E0C82EC092200440E092
:102E800066E089E194E00E940C0E40E062E089E196
:102E900094E00E940C0E8BE39FE10197F1F788E02C
:102EA0008093240460E089E194E00E948F0D60E04B
:102EB00080E00E940F1280E991E00E943E1261E0E2
:102EC00080E00E940F1280E891E00E943E1262E0D2
:102ED00080E00E940F128FE691E00E943E1263E0B4
:102EE00080E00E940F1282E691E00E943E1260EDA7
:102EF00077E080E090E00E94B10C60E083E00E9407
:102F0000750C60E082E00E94750C61E086E00E9432
:102F1000750C61E085E00E94750C61E08AE00E941A
:102F2000750C61E08BE00E94750C60E08EE00E9401
:102F3000750C60E08FE00E94750C60E082E00E94FA
:102F4000750C61E082E00E94460C60E084E00E9423
:102F5000750C61E084E00E94460C60E083E00E9412
:102F6000750C61E083E00E94460C89ED93E090933C
:102F7000010180930001809169008C7F81608093C2
:102F80006900E89A8EE493E0909303018093020134
:102F900080916900837F886080936900E99A10922C
:102FA000AD021092AC0280E490E00E94FD208C0102
:102FB0000E940E111093B7020093B602C8010E943E
:102FC000951296E0D92EF801D5AE8EE086AF80E45A
:102FD00090E00E94FD207C010E940E11F092B5024B
:102FE000E092B402C7010E94951285E0F70185AF17
:102FF0008FE086AF81E190E00E94FD208C01A090DF
:10300000B602B090B702FC01128667E871E00B9639
:103010000E940015F801B182A082F382E28284EF5F
:1030200091E0918780871093B9020093B802E091F4
:103030008003F0918103C082E0917C03F0917D03D5
:103040001082E0917E03F0917F0380E180831092F3
:103050008803E0918403F0918503D082E09182039C
:10306000F0918303808180618083E0918203F091FD
:103070008303808188608083E0918203F0918303E1
:10308000808180688083E0918203F0918303808156
:103090008F7D8083E091B602F091B70200E010E0EE
:1030A00020EF31E4018B128B238B348B40E050E016
:1030B00060EA71E4458756876787708B80E090E00F
:1030C000A8ECB1E4858B968BA78BB08FE091B4020E
:1030D000F091B502018B128B238B348B4587568779
:1030E0006787708B858B968BA78BB08F0E94EB0CBC
:1030F0002091BA023091BB02AB01421B530B483CFA
:10310000510550F06093BA027093BB028093BC02E9
:103110009093BD0211E001C010E08091B602909141
:10312000B7020E94570F8091B4029091B5020E949D
:10313000570F8091B8029091B9020E94EF061123B7
:1031400009F48CC28091B3028111DFC08091040127
:10315000882309F471C00E94041260E080E00E949C
:103160000F128DE992E00E943E1263E572E0CE01FB
:1031700001960E940015E091B602F091B7024185D8
:10318000528563857485CE0101960E94851469E598
:1031900072E0CE0101960E948612E091B602F09193
:1031A000B702458956896789708DCE0101960E94C4
:1031B000851461E080E00E940F12BE016F5F7F4FB7
:1031C00089E194E00E94151545E050E063E572E066
:1031D000CE0101960E94C814E091B402F091B502AC
:1031E0004185528563857485CE0101960E948514C0
:1031F00069E572E0CE0101960E948612E091B40268
:10320000F091B502458956896789708DCE01019686
:103210000E94851462E080E00E940F12BE016F5F81
:103220007F4F89E194E00E94151510920401898175
:103230009A810E94952138C061E085E00E940F12BA
:10324000E091B602F091B70261857285838594851D
:103250000E94671661E08FE00E940F12E091B602B3
:10326000F091B702658976898789908D0E946716EB
:1032700062E085E00E940F12E091B402F091B50285
:1032800061857285838594850E94671662E08FE070
:103290000E940F12E091B402F091B502658976891F
:1032A0008789908D0E9467160091B8021091B9022B
:1032B000F8018285882309F4D1C163E080E00E948F
:1032C0000F121A8219821C821B821E821D82B80173
:1032D000655F7F4FCE0101960E94E914BE016F5FCA
:1032E0007F4F89E194E00E94151589819A810E949F
:1032F0009521E091B802F091B902128668EE73E070
:1033000080E090E00E94B10CA9C18091B10290913F
:10331000B2028130910509F479C08230910509F437
:10332000F0C0892B09F09AC180910401882321F112
:103330000E94041260E080E00E940F1288E892E090
:103340000E943E1261E080E00E940F1283E792E04B
:103350000E943E1262E080E00E940F128EE592E031
:103360000E943E1263E080E00E940F1289E492E026
:103370000E943E12109204018091AF029091B0021F
:10338000039720F01092B0021092AF028091AF022A
:103390009091B002892B39F461E080E00E940F1215
:1033A0008FE592E01BC18091AF029091B00201972E
:1033B00079F461E080E00E940F1287E692E00E94BB
:1033C000381562E080E00E940F128FE592E021C183
:1033D0008091AF029091B002029709F03FC161E085
:1033E00080E00E940F1287E692E00E94381562E0AA
:1033F00080E00E940F1287E692E00E94381563E099
:1034000080E00E940F128FE592E026C160E080E02C
:103410000E940F1284E392E00E943E128091AE025D
:10342000853010F01092AE028091AE0261E08230E1
:1034300050F580E00E940F128FE192E00E943E1250
:1034400062E080E00E940F1286E192E00E943E124C
:10345000E091B602F091B7026585768587859089FF
:103460000E94671682E692E00E94381563E080E0D1
:103470000E940F128DE092E00E943E12E091B6028F
:10348000F091B70229C080E00E940F1283E092E021
:103490000E943E1262E080E00E940F128AEF91E0EB
:1034A0000E943E12E091B402F091B50265857685E6
:1034B000878590890E94671682E692E00E943815FF
:1034C00063E080E00E940F1281EF91E00E943E12C3
:1034D000E091B402F091B50261897289838994897F
:1034E0000E94671682E692E00E9438158091AE0233
:1034F000882309F4B6C08091AE02823009F0BAC0C8
:10350000B0C060E080E00E940F1288ED91E00E9460
:103510003E126091AD0270E080E090E00E94481E93
:1035200020E030E04FE753E40E94232020E030E029
:1035300048EC52E40E94A71E6B017C011091AC0282
:1035400022E0AB01BC0180E793E00E943D1560E5FD
:1035500072E080E793E00E94231561E080E00E9422
:103560000F1289EC91E00E943E12C701B6010E9441
:10357000671686E692E00E94381562E080E00E94BD
:103580000F128AEB91E00E943E12612F70E080E002
:1035900090E00E94481E20E030E04FE753E40E9494
:1035A000232020E030E048EC52E40E94A71E0E9455
:1035B000671686E692E00E94381563E080E00E947C
:1035C0000F1285EA91E00E943E128091AE028111B5
:1035D0000EC061E00E940F128AE692E00E94381548
:1035E00062E080E00E940F1287E692E012C08091B4
:1035F000AE028130B9F461E080E00E940F1287E6EC
:1036000092E00E94381562E080E00E940F128AE684
:1036100092E00E94381563E080E00E940F1287E676
:1036200092E01AC08091AE028230C1F461E080E085
:103630000E940F1287E692E00E94381562E080E057
:103640000E940F1287E692E00E94381563E080E046
:103650000E940F128AE692E00E9438150E94BE0A6C
:1036600045CD62E080E00E940F128FEE91E00E9453
:103670003E12F4CF8091AE02843059F41092B2021F
:103680001092B1021092B3021092B0021092AF02E7
:10369000E5CF63E080E00E940F128DEE91E0E7CF6E
:1036A000E0E7F3E01382128288EE93E0A0E0B0E05E
:1036B00084839583A683B7832DE431E0318320830F
:1036C00025EC30E03587248724EC30E037872687E7
:1036D00020EC30E0318B208B21EC30E0338B228BDF
:1036E00022EC30E0358B248B26EC30E0378B268BB8
:1036F000118E128E138E148EEDE0F4E0138212827E
:1037000084839583A683B7838FE591E0918380833B
:10371000E9E1F4E01382128281E791E091838083F2
:1037200087E2848384E1818784E082871386089519
:10373000EF920F931F93CF93DF93E80147FD02C0F1
:1037400034E001C034E1042E000C550B57FF03C0D8
:10375000519541955109E32E022F242FAE010E946D
:10376000FF1BCE01DF91CF911F910F91EF90089534
:10377000BB274A3031F4992322F4BDE2909581951C
:103780009F4F0C94E61BBB27FA01A62F6217710509
:1037900081059105330B30FB66F0AA27660F771F72
:1037A000881F991FAA1FA21710F0A21B63953850FB
:1037B000A9F7A05DAA3308F0A95DA19336F7B1116E
:1037C000B1931082CA010C94311EBB27FB0155270F
:1037D000AA27880F991FAA1FA41710F0A41B83956E
:1037E0005051B9F7A05DAA3308F0A95DA1930097E5
:1037F00079F7B111B1931192CB010C94311EA9E06C
:10380000B0E0E5E0FCE10C94761F6A01122FB02EC7
:103810002BE3201720F0FF24F394F00E02C02CE3DA
:10382000F22E0F2D27E0AE014F5F5F4F0E94591D12
:10383000BC014981842F8970813031F0E1FC06C0E0
:10384000E0FE06C090E205C09DE203C09BE201C01D
:1038500090E05E2D507143FF3CC0911102C083E0A7
:1038600001C084E0811718F4212F281B01C020E03B
:1038700051110BC0F601822F30E2882319F03193E9
:103880008150FBCFC20ED11C20E0992329F0D60134
:103890009C93F60131966F01C6010396E2FE0AC0C1
:1038A0003EE4D6013C9341E411964C931197129655
:1038B0003C9306C03EE6F601308341E64183328305
:1038C000FC01322F40E2332309F442C041933150CE
:1038D000FACF42FF44C0911102C083E001C084E0EE
:1038E000811718F4212F281B01C020E051110BC0B3
:1038F000F601822F30E2882319F031938150FBCFFB
:10390000C20ED11C20E0992329F0D6019C93F60128
:1039100031966F01C6010396E2FE0BC039E4D60171
:103920003C933EE411963C93119736E412963C93F7
:1039300007C039E6F60130833EE6318336E632834E
:10394000FC01322F40E2332319F041933150FBCF79
:10395000FC01E20FF11D10828EEF9FEFA6C021E067
:1039600030E0911102C020E030E0161617061CF47A
:10397000FB01319602C0E1E0F0E02E0F3F1FBB20BB
:1039800021F0EB2DF0E0319602C0E0E0F0E02E0FE8
:103990003F1FE12FF0E02E173F071CF4121B212FD1
:1039A00001C020E08E2D887159F4F601822F30E29B
:1039B000882319F031938150FBCFC20ED11C20E037
:1039C000992329F0D6019C93F60131966F0151118C
:1039D0000BC0F601822F90E3882319F09193815058
:1039E000FBCFC20ED11C20E00F2D060F9A81342F81
:1039F000307144FF03C0913309F40150101624F4D0
:103A0000093018F008E001C001E0AB0177FF02C007
:103A100040E050E0FB01E41BF50BA1E0B0E0AC0F8F
:103A2000BD1FEA0FFB1F8EE2A82E4B01801A9108E2
:103A30000B2D10E01195019511094F3FBFEF5B076A
:103A400021F4D601AC9211966D01641775072CF024
:103A50008416950614F4818101C080E34150510918
:103A60003196D60111967D014017510724F0D601F9
:103A70008C936701E2CF6417750739F4963320F40D
:103A8000953319F4311101C081E3F6018083F70108
:103A9000822F90E2882319F091938150FBCFF70198
:103AA000E20FF11D108280E090E02996ECE00C948A
:103AB000921F283008F027E03327DA01990F311DD3
:103AC00087FD916000966105710539F432602E5FC3
:103AD0003D9330E32A95E1F708959F3F30F0803819
:103AE0007105610509F03C5F3C5F3D93913008F042
:103AF0008068911DDF93CF931F930F93FF92EF92F6
:103B0000192F987F9695E92F96959695E90FFF279F
:103B1000EE53FF4F99273327EE24FF24A701E70137
:103B200005900894079428F4360FE71EF81E491FE5
:103B3000511D660F771F881F991F0694A1F70590E6
:103B4000079428F4E70EF81E491F561FC11D770F72
:103B5000881F991F661F0694A1F70590079428F403
:103B6000F80E491F561FC71FD11D880F991F661FCA
:103B7000771F0694A1F70590079420F4490F561F6C
:103B8000C71FD81F990F661F771F881F0694A9F7B4
:103B900084911095177041F0D695C7955795479524
:103BA000F794E7941A95C1F7E8E6F0E06894159069
:103BB000159135916591959105907FE27395E11886
:103BC000F10A430B560BC90BD009C0F7E10CF11EEB
:103BD000431F561FC91FD01D7EF4703311F48A9500
:103BE000E6CFE894015030F0080F0AF400270217DE
:103BF00008F4202F2395022F7A3328F079E37D9360
:103C00002A95E9F710C07D932A9589F60694979531
:103C10006795379517951794E118F10A430B560BE2
:103C2000C90BD00998F023957E9173957A3308F0EB
:103C300070E37C932013B8F77E9170617D9330F030
:103C4000839571E37D9370E32A95E1F71124EF905A
:103C5000FF900F911F91CF91DF91992787FD90954C
:103C60000895DC01FC01672F71917723E1F732970A
:103C700004C07C916D9370836291AE17BF07C8F347
:103C800008950E94831E08F481E00895E89409C015
:103C900097FB3EF490958095709561957F4F8F4F7F
:103CA0009F4F9923A9F0F92F96E9BB279395F69595
:103CB000879577956795B795F111F8CFFAF4BB0F13
:103CC00011F460FF1BC06F5F7F4F8F4F9F4F16C077
:103CD000882311F096E911C0772321F09EE8872F01
:103CE000762F05C0662371F096E8862F70E060E0BD
:103CF0002AF09A95660F771F881FDAF7880F969536
:103D0000879597F90895990F0008550FAA0BE0E8D9
:103D1000FEEF16161706E807F907C0F0121613068D
:103D2000E407F50798F0621B730B840B950B39F4CD
:103D30000A2661F0232B242B252B21F408950A2633
:103D400009F4A140A6958FEF811D811D08950E9461
:103D5000BA1E0C942B1F0E941D1F38F00E94241FB6
:103D600020F0952311F00C94141F0C941A1F1124A9
:103D70000C945F1F0E943C1F70F3959FC1F3950F39
:103D800050E0551F629FF001729FBB27F00DB11DDF
:103D9000639FAA27F00DB11DAA1F649F6627B00D6F
:103DA000A11D661F829F2227B00DA11D621F739F58
:103DB000B00DA11D621F839FA00D611D221F749F66
:103DC0003327A00D611D231F849F600D211D822FAD
:103DD000762F6A2F11249F5750409AF0F1F08823D4
:103DE0004AF0EE0FFF1FBB1F661F771F881F915001
:103DF0005040A9F79E3F510580F00C94141F0C947D
:103E00005F1F5F3FE4F3983ED4F3869577956795FF
:103E1000B795F795E7959F5FC1F7FE2B880F911D2A
:103E20009695879597F9089597F99F6780E870E0D0
:103E300060E008959FEF80EC089500240A94161620
:103E4000170618060906089500240A941216130688
:103E5000140605060895092E0394000C11F4882316
:103E600052F0BB0F40F4BF2B11F460FF04C06F5F32
:103E70007F4F8F4F9F4F089557FD9058440F551F08
:103E800059F05F3F71F04795880F97FB991F61F0DC
:103E90009F3F79F087950895121613061406551F53
:103EA000F2CF4695F1DF08C0161617061806991FBF
:103EB000F1CF86957105610508940895E894BB27B4
:103EC00066277727CB0197F908950E94A71FA59F22
:103ED000900DB49F900DA49F800D911D1124089505
:103EE0002F923F924F925F926F927F928F929F920A
:103EF000AF92BF92CF92DF92EF92FF920F931F93F8
:103F0000CF93DF93CDB7DEB7CA1BDB0B0FB6F894A8
:103F1000DEBF0FBECDBF09942A88398848885F84E8
:103F20006E847D848C849B84AA84B984C884DF8059
:103F3000EE80FD800C811B81AA81B981CE0FD11D3D
:103F40000FB6F894DEBF0FBECDBFED010895A29F5E
:103F5000B001B39FC001A39F700D811D1124911D5D
:103F6000B29F700D811D1124911D08955058BB27DB
:103F7000AA270E94CE1F0C942B1F0E941D1F38F0F1
:103F80000E94241F20F039F49F3F19F426F40C946A
:103F90001A1F0EF4E095E7FB0C94141FE92F0E9402
:103FA0003C1F58F3BA17620773078407950720F080
:103FB00079F4A6F50C945E1F0EF4E0950B2EBA2F43
:103FC000A02D0B01B90190010C01CA01A00111241F
:103FD000FF27591B99F0593F50F4503E68F11A16CB
:103FE000F040A22F232F342F4427585FF3CF46955C
:103FF00037952795A795F0405395C9F77EF41F167E
:10400000BA0B620B730B840BBAF09150A1F0FF0F47
:10401000BB1F661F771F881FC2F70EC0BA0F621F33
:10402000731F841F48F4879577956795B795F79523
:104030009E3F08F0B0CF9395880F08F09927EE0FB8
:104040009795879508950E9437200C942B1F0E9406
:10405000241F58F00E941D1F40F029F45F3F29F0F3
:104060000C94141F51110C945F1F0C941A1F0E9482
:104070003C1F68F39923B1F3552391F3951B550B1E
:10408000BB27AA2762177307840738F09F5F5F4F2B
:10409000220F331F441FAA1FA9F335D00E2E3AF06A
:1040A000E0E832D091505040E695001CCAF72BD082
:1040B000FE2F29D0660F771F881FBB1F26173707D3
:1040C0004807AB07B0E809F0BB0B802DBF01FF2705
:1040D00093585F4F3AF09E3F510578F00C94141FAF
:1040E0000C945F1F5F3FE4F3983ED4F38695779579
:1040F0006795B795F7959F5FC9F7880F911D9695BE
:10410000879597F90895E1E0660F771F881FBB1F19
:10411000621773078407BA0720F0621B730B840BC6
:10412000BA0BEE1F88F7E09508950E949C206894D2
:10413000B1110C945F1F08950E94441F88F09F578F
:1041400098F0B92F9927B751B0F0E1F0660F771FBB
:10415000881F991F1AF0BA95C9F714C0B13091F0B1
:104160000E945E1FB1E008950C945E1F672F782FA8
:104170008827B85F39F0B93FCCF386957795679576
:10418000B395D9F73EF490958095709561957F4FE2
:104190008F4F9F4F08950E94831E08F48FEF08955C
:1041A0000E94831E880B990B0895A1E21A2EAA1B68
:1041B000BB1BFD010DC0AA1FBB1FEE1FFF1FA217D7
:1041C000B307E407F50720F0A21BB30BE40BF50BD4
:1041D000661F771F881F991F1A9469F7609570955D
:1041E000809590959B01AC01BD01CF010895EE0F24
:1041F000FF1F0590F491E02D09940F931F93CF9327
:10420000DF938230910510F482E090E0E091270482
:10421000F091280420E030E0A0E0B0E0309719F100
:10422000408151810281138148175907C8F08417D2
:10423000950769F4109731F012960C931297139624
:104240001C9327C0009327041093280422C0211533
:10425000310519F04217530718F49A01BD01EF0117
:10426000DF01F801DBCF21153105F9F0281B390BEF
:104270002430310580F48A819B816115710521F01C
:10428000FB019383828304C09093280480932704C6
:10429000FE01329644C0FE01E20FF31F8193919319
:1042A00022503109398328833AC020912504309166
:1042B0002604232B41F4209107013091080130930B
:1042C0002604209325042091050130910601211533
:1042D000310541F42DB73EB74091090150910A01D3
:1042E000241B350BE0912504F0912604E217F30717
:1042F000A0F42E1B3F0B2817390778F0AC014E5F56
:104300005F4F2417350748F04E0F5F1F5093260468
:10431000409325048193919302C0E0E0F0E0CF0147
:10432000DF91CF911F910F910895CF93DF93009765
:1043300009F481C0FC01329713821282A0912704F4
:10434000B0912804109781F420813181820F931F4E
:1043500020912504309126042817390751F5F09350
:104360002604E093250467C0ED0120E030E0CE177D
:10437000DF0740F44A815B819E0141155105F1F050
:10438000EA01F5CFD383C28340815181840F951F09
:10439000C817D90759F488819981840F951F02960F
:1043A000918380838A819B81938382832115310548
:1043B00029F4F0932804E09327043DC0E901FB832E
:1043C000EA8349915991C40FD51FEC17FD0761F499
:1043D00080819181840F951F0296E90199838883DA
:1043E000828193819B838A83E0E0F0E012968D9135
:1043F0009C911397009719F0FD01DC01F7CF8D9187
:104400009C9111979D012E5F3F4F820F931F20912A
:104410002504309126042817390769F4309729F4C8
:10442000109228041092270402C013821282B093C3
:104430002604A0932504DF91CF910895A0E0B0E079
:10444000E4E2F2E20C94741FEC01009721F4CB013A
:104450000E94FD20B4C0FC01E60FF71F9C01225012
:104460003109E217F30708F4A8C0D9010D911C9196
:10447000119706171707B0F00530110508F49BC017
:10448000C80104978617970708F495C002501109D0
:10449000061B170B019311936D937C93CF010E9420
:1044A000952189C05B01A01AB10A4C01800E911EB2
:1044B000A0912704B0912804612C712CE12CF12CDF
:1044C000109709F446C08D919C911197A815B905D4
:1044D000B1F56C0142E0C40ED11CCA14DB0478F1C2
:1044E0004C018A189B08640142E0C40ED11C12964C
:1044F000BC9012971396AC91B5E0CB16D10440F066
:10450000B282A38391828082D9016D937C9309C08A
:104510000E5F1F4F800F911FF90191838083EB2D58
:10452000FA2FE114F10431F0D7011396FC93EE93C6
:10453000129741C0F0932804E09327043CC068160A
:10454000790608F43C017D0112960D90BC91A02DD6
:10455000B7CF809125049091260488169906E1F43E
:1045600066167706C8F480910501909106010097C0
:1045700041F48DB79EB74091090150910A01841B07
:10458000950BE817F907C8F4F0932604E093250487
:10459000F901718360830FC0CB010E94FD207C0173
:1045A000009759F0A801BE010E94E922CE010E94A5
:1045B0009521C70104C0CE0102C080E090E0CDB7D4
:1045C000DEB7EEE00C94901F81E090E0F8940C943C
:1045D0000223FB01DC0102C001900D9241505040CA
:1045E000D8F70895FB01DC018D910190801901102D
:1045F000D9F3990B0895FB01DC0101900D92002085
:08460000E1F70895F894FFCFE3
:10460800160B160B0100002904800000000000B101
:1046180001CDCCCC3D0AD7233C17B7D13877CC2B6A
:10462800329595E6241FB14F0A000020410000C8CA
:104638004200401C4620BCBE4CCA1B0E5AAEC59D4B
:1046480074000040001400540000000000DC09B3AE
:1046580011810AFB0BB20A900AA40A00000000A408
:104668000B770BD40B4B0B6F0B5B0B4C0B00000049
:1046780000230EB311D40BD30B22225C5C620866B4
:104688000C6E0A720D740900636F6D6D616E6400C3
:104698006E756C6C00757064617465006D696E543C
:1046A800656D70006D617854656D700074656D702E
:1046B80053616D706C6552617465006B69006B7055
:1046C800006B640070696453616D706C655261744D
:1046D80065006D616E75616C0070776D56616C7503
:1046E80065006175746F007B22616374696F6E2267
:1046F8003A22757064617465222C226461746122A7
:104708003A7B227A6F6E65223A5B7B2274656D7004
:10471800223A002C2266616E52706D223A002C22D9
:1047280066616E50776D223A002C226572726F7244
:10473800223A002C227069646F7574223A007D2C2D
:104748007B2274656D70223A007D005D7D7D3B00A3
:104758000D0A0054656D703A00205365743A002DB7
:104768003E0020202020202020002A007A6F6E653D
:10477800730064617461006E616E00696E66006F3B
:044788007666000051
:00000001FF
